{
  "contractName": "Lottery",
  "abi": [
    {
      "inputs": [],
      "stateMutability": "nonpayable",
      "type": "constructor"
    },
    {
      "inputs": [],
      "name": "manager",
      "outputs": [
        {
          "internalType": "address",
          "name": "",
          "type": "address"
        }
      ],
      "stateMutability": "view",
      "type": "function",
      "constant": true
    },
    {
      "inputs": [
        {
          "internalType": "uint256",
          "name": "",
          "type": "uint256"
        }
      ],
      "name": "players",
      "outputs": [
        {
          "internalType": "address payable",
          "name": "",
          "type": "address"
        }
      ],
      "stateMutability": "view",
      "type": "function",
      "constant": true
    },
    {
      "inputs": [],
      "name": "winner",
      "outputs": [
        {
          "internalType": "address payable",
          "name": "",
          "type": "address"
        }
      ],
      "stateMutability": "view",
      "type": "function",
      "constant": true
    },
    {
      "stateMutability": "payable",
      "type": "receive",
      "payable": true
    },
    {
      "inputs": [],
      "name": "getbalance",
      "outputs": [
        {
          "internalType": "uint256",
          "name": "",
          "type": "uint256"
        }
      ],
      "stateMutability": "view",
      "type": "function",
      "constant": true
    },
    {
      "inputs": [],
      "name": "pickWinner",
      "outputs": [],
      "stateMutability": "nonpayable",
      "type": "function"
    },
    {
      "inputs": [],
      "name": "allPlayers",
      "outputs": [
        {
          "internalType": "address payable[]",
          "name": "",
          "type": "address[]"
        }
      ],
      "stateMutability": "view",
      "type": "function",
      "constant": true
    }
  ],
  "bytecode": "0x608060405234801561001057600080fd5b5033600160006101000a81548173ffffffffffffffffffffffffffffffffffffffff021916908373ffffffffffffffffffffffffffffffffffffffff160217905550610b9f806100616000396000f3fe6080604052600436106100595760003560e01c8063481c6a75146101115780634d9b3d5d1461013c5780635d495aea14610167578063b0ec80941461017e578063dfbf53ae146101a9578063f71d96cb146101d45761010c565b3661010c5766038d7ea4c6800034146100a7576040517f08c379a000000000000000000000000000000000000000000000000000000000815260040161009e9061074b565b60405180910390fd5b6000339080600181540180825580915050600190039060005260206000200160009091909190916101000a81548173ffffffffffffffffffffffffffffffffffffffff021916908373ffffffffffffffffffffffffffffffffffffffff160217905550005b600080fd5b34801561011d57600080fd5b50610126610211565b60405161013391906107ac565b60405180910390f35b34801561014857600080fd5b50610151610237565b60405161015e91906107e0565b60405180910390f35b34801561017357600080fd5b5061017c6102cf565b005b34801561018a57600080fd5b5061019361051a565b6040516101a091906108cb565b60405180910390f35b3480156101b557600080fd5b506101be6105a8565b6040516101cb91906108fc565b60405180910390f35b3480156101e057600080fd5b506101fb60048036038101906101f69190610948565b6105ce565b60405161020891906108fc565b60405180910390f35b600160009054906101000a900473ffffffffffffffffffffffffffffffffffffffff1681565b6000600160009054906101000a900473ffffffffffffffffffffffffffffffffffffffff1673ffffffffffffffffffffffffffffffffffffffff163373ffffffffffffffffffffffffffffffffffffffff16146102c9576040517f08c379a00000000000000000000000000000000000000000000000000000000081526004016102c0906109c1565b60405180910390fd5b47905090565b600160009054906101000a900473ffffffffffffffffffffffffffffffffffffffff1673ffffffffffffffffffffffffffffffffffffffff163373ffffffffffffffffffffffffffffffffffffffff161461035f576040517f08c379a0000000000000000000000000000000000000000000000000000000008152600401610356906109c1565b60405180910390fd5b6002600080549050116103a7576040517f08c379a000000000000000000000000000000000000000000000000000000000815260040161039e90610a2d565b60405180910390fd5b60006103b161060d565b905060008080549050826103c59190610a7c565b9050600081815481106103db576103da610aad565b5b9060005260206000200160009054906101000a900473ffffffffffffffffffffffffffffffffffffffff16600260006101000a81548173ffffffffffffffffffffffffffffffffffffffff021916908373ffffffffffffffffffffffffffffffffffffffff160217905550600260009054906101000a900473ffffffffffffffffffffffffffffffffffffffff1673ffffffffffffffffffffffffffffffffffffffff166108fc61048a610237565b9081150290604051600060405180830381858888f193505050501580156104b5573d6000803e3d6000fd5b50600067ffffffffffffffff8111156104d1576104d0610adc565b5b6040519080825280602002602001820160405280156104ff5781602001602082028036833780820191505090505b5060009080519060200190610515929190610647565b505050565b6060600080548060200260200160405190810160405280929190818152602001828054801561059e57602002820191906000526020600020905b8160009054906101000a900473ffffffffffffffffffffffffffffffffffffffff1673ffffffffffffffffffffffffffffffffffffffff1681526020019060010190808311610554575b5050505050905090565b600260009054906101000a900473ffffffffffffffffffffffffffffffffffffffff1681565b600081815481106105de57600080fd5b906000526020600020016000915054906101000a900473ffffffffffffffffffffffffffffffffffffffff1681565b6000444260008054905060405160200161062993929190610b2c565b6040516020818303038152906040528051906020012060001c905090565b8280548282559060005260206000209081019282156106c0579160200282015b828111156106bf5782518260006101000a81548173ffffffffffffffffffffffffffffffffffffffff021916908373ffffffffffffffffffffffffffffffffffffffff16021790555091602001919060010190610667565b5b5090506106cd91906106d1565b5090565b5b808211156106ea5760008160009055506001016106d2565b5090565b600082825260208201905092915050565b7f4d696e696d756d20656e7472792066656520697320312066696e6e6579000000600082015250565b6000610735601d836106ee565b9150610740826106ff565b602082019050919050565b6000602082019050818103600083015261076481610728565b9050919050565b600073ffffffffffffffffffffffffffffffffffffffff82169050919050565b60006107968261076b565b9050919050565b6107a68161078b565b82525050565b60006020820190506107c1600083018461079d565b92915050565b6000819050919050565b6107da816107c7565b82525050565b60006020820190506107f560008301846107d1565b92915050565b600081519050919050565b600082825260208201905092915050565b6000819050602082019050919050565b60006108328261076b565b9050919050565b61084281610827565b82525050565b60006108548383610839565b60208301905092915050565b6000602082019050919050565b6000610878826107fb565b6108828185610806565b935061088d83610817565b8060005b838110156108be5781516108a58882610848565b97506108b083610860565b925050600181019050610891565b5085935050505092915050565b600060208201905081810360008301526108e5818461086d565b905092915050565b6108f681610827565b82525050565b600060208201905061091160008301846108ed565b92915050565b600080fd5b610925816107c7565b811461093057600080fd5b50565b6000813590506109428161091c565b92915050565b60006020828403121561095e5761095d610917565b5b600061096c84828501610933565b91505092915050565b7f6f6e6c79206d616e616765722068617320616363657373000000000000000000600082015250565b60006109ab6017836106ee565b91506109b682610975565b602082019050919050565b600060208201905081810360008301526109da8161099e565b9050919050565b7f706c617965727320617265206c657373207468656e2033000000000000000000600082015250565b6000610a176017836106ee565b9150610a22826109e1565b602082019050919050565b60006020820190508181036000830152610a4681610a0a565b9050919050565b7f4e487b7100000000000000000000000000000000000000000000000000000000600052601260045260246000fd5b6000610a87826107c7565b9150610a92836107c7565b925082610aa257610aa1610a4d565b5b828206905092915050565b7f4e487b7100000000000000000000000000000000000000000000000000000000600052603260045260246000fd5b7f4e487b7100000000000000000000000000000000000000000000000000000000600052604160045260246000fd5b6000819050919050565b610b26610b21826107c7565b610b0b565b82525050565b6000610b388286610b15565b602082019150610b488285610b15565b602082019150610b588284610b15565b60208201915081905094935050505056fea2646970667358221220bbe2a8e830135474a618fb225de85507ab2b06e6cf86b1f2b18478b9c8616ae064736f6c634300080b0033",
  "immutableReferences": {},
  "source": "\r\n// SPDX-License-Identifier: MIT\r\npragma solidity ^0.8.0;\r\n\r\ncontract Lottery{\r\n    address payable[] public players;\r\n    address public manager;\r\n    address payable public winner;\r\n\r\n    constructor(){\r\n        manager=msg.sender;\r\n    }\r\n\r\n    receive() external payable {\r\n        require(msg.value== 1000000000000000, \"Minimum entry fee is 1 finney\");\r\n        players.push(payable(msg.sender));\r\n    }\r\n    modifier onlyManager{\r\n        require(msg.sender==manager, \"only manager has access\");\r\n        _;\r\n    }\r\n    function getbalance() onlyManager public view returns (uint)  {\r\n        return address(this).balance;\r\n    }\r\n    function random() internal view returns(uint) {\r\n       return uint(keccak256(abi.encodePacked(block.difficulty,block.timestamp,players.length)));\r\n    }\r\n    function pickWinner() public onlyManager {\r\n        require(players.length >2,\"players are less then 3\");\r\n        uint r= random();\r\n        uint index= r % players.length;\r\n        winner= players[index];\r\n        winner.transfer(getbalance());\r\n        players= new address payable[](0);\r\n    }\r\n    function allPlayers() public view returns(address payable[] memory){\r\n        return players;\r\n    }\r\n\r\n}\r\n // gorlieadd: 0xA7802Db44Beed0a5c62D6BD72954F564d1e9a0B1 \r\n//  ganache : 0x60924e3A0c17c6e0AE07ad702faae56cA502473F",
  "sourcePath": "D:\\Lottery-Dapp\\web3lab\\contracts\\Lottery.sol",
  "compiler": {
    "name": "solc",
    "version": "0.8.11+commit.d7f03943.Emscripten.clang"
  },
  "schemaVersion": "3.4.10",
  "updatedAt": "2022-11-25T04:50:14.571Z",
  "networkType": "ethereum",
  "devdoc": {
    "kind": "dev",
    "methods": {},
    "version": 1
  },
  "userdoc": {
    "kind": "user",
    "methods": {},
    "version": 1
  }
}